{
    "_format": "hh-sol-artifact-1",
    "contractName": "WavePortal",
    "sourceName": "contracts/WavePortal.sol",
    "abi": [
        {
            "inputs": [],
            "stateMutability": "nonpayable",
            "type": "constructor"
        },
        {
            "anonymous": false,
            "inputs": [
                {
                    "indexed": true,
                    "internalType": "address",
                    "name": "from",
                    "type": "address"
                },
                {
                    "indexed": false,
                    "internalType": "uint256",
                    "name": "timestamp",
                    "type": "uint256"
                },
                {
                    "indexed": false,
                    "internalType": "string",
                    "name": "message",
                    "type": "string"
                }
            ],
            "name": "NewWave",
            "type": "event"
        },
        {
            "inputs": [
                {
                    "internalType": "uint256",
                    "name": "",
                    "type": "uint256"
                }
            ],
            "name": "friends",
            "outputs": [
                {
                    "internalType": "string",
                    "name": "",
                    "type": "string"
                }
            ],
            "stateMutability": "view",
            "type": "function"
        },
        {
            "inputs": [],
            "name": "getAllWaves",
            "outputs": [
                {
                    "components": [
                        {
                            "internalType": "address",
                            "name": "waver",
                            "type": "address"
                        },
                        {
                            "internalType": "string",
                            "name": "message",
                            "type": "string"
                        },
                        {
                            "internalType": "uint256",
                            "name": "timestamp",
                            "type": "uint256"
                        }
                    ],
                    "internalType": "struct WavePortal.Wave[]",
                    "name": "",
                    "type": "tuple[]"
                }
            ],
            "stateMutability": "view",
            "type": "function"
        },
        {
            "inputs": [],
            "name": "getTotalWaves",
            "outputs": [
                {
                    "internalType": "uint256",
                    "name": "",
                    "type": "uint256"
                }
            ],
            "stateMutability": "view",
            "type": "function"
        },
        {
            "inputs": [
                {
                    "internalType": "string",
                    "name": "_message",
                    "type": "string"
                }
            ],
            "name": "wave",
            "outputs": [],
            "stateMutability": "nonpayable",
            "type": "function"
        }
    ],
    "bytecode": "0x60806040523480156200001157600080fd5b506200005d6040518060400160405280601481526020017f57656c636f6d6520746f2057617665426f6f6b210000000000000000000000008152506200006360201b620004991760201c565b620001f7565b62000103816040516024016200007a919062000170565b6040516020818303038152906040527f41304fac000000000000000000000000000000000000000000000000000000007bffffffffffffffffffffffffffffffffffffffffffffffffffffffff19166020820180517bffffffffffffffffffffffffffffffffffffffffffffffffffffffff83818316178352505050506200010660201b60201c565b50565b60008151905060006a636f6e736f6c652e6c6f679050602083016000808483855afa5050505050565b60006200013c8262000194565b6200014881856200019f565b93506200015a818560208601620001b0565b6200016581620001e6565b840191505092915050565b600060208201905081810360008301526200018c81846200012f565b905092915050565b600081519050919050565b600082825260208201905092915050565b60005b83811015620001d0578082015181840152602081019050620001b3565b83811115620001e0576000848401525b50505050565b6000601f19601f8301169050919050565b610d6380620002076000396000f3fe608060405234801561001057600080fd5b506004361061004c5760003560e01c8063449d46c0146100515780639a2cdc081461006d578063bd43a9081461008b578063ce146828146100a9575b600080fd5b61006b600480360381019061006691906107b6565b6100d9565b005b610075610251565b6040516100829190610a60565b60405180910390f35b61009361029c565b6040516100a091906109a7565b60405180910390f35b6100c360048036038101906100be91906107f7565b6103ed565b6040516100d091906109c9565b60405180910390f35b60016000808282546100eb9190610b72565b925050819055506101326040518060400160405280601681526020017f257320776176656420772f206d657373616765202573000000000000000000008152503383610532565b600260405180606001604052803373ffffffffffffffffffffffffffffffffffffffff16815260200183815260200142815250908060018154018082558091505060019003906000526020600020906003020160009091909190915060008201518160000160006101000a81548173ffffffffffffffffffffffffffffffffffffffff021916908373ffffffffffffffffffffffffffffffffffffffff16021790555060208201518160010190805190602001906101f1929190610696565b506040820151816002015550503373ffffffffffffffffffffffffffffffffffffffff167f5f7e16dc676677766a70e9c5628aa6c54ddb8b6e5188e2ae1e1f17f1ffbea7164283604051610246929190610a7b565b60405180910390a250565b60006102946040518060400160405280601781526020017f5765206861766520256420746f74616c207761766573210000000000000000008152506000546105d1565b600054905090565b60606002805480602002602001604051908101604052809291908181526020016000905b828210156103e457838290600052602060002090600302016040518060600160405290816000820160009054906101000a900473ffffffffffffffffffffffffffffffffffffffff1673ffffffffffffffffffffffffffffffffffffffff1673ffffffffffffffffffffffffffffffffffffffff16815260200160018201805461034990610c46565b80601f016020809104026020016040519081016040528092919081815260200182805461037590610c46565b80156103c25780601f10610397576101008083540402835291602001916103c2565b820191906000526020600020905b8154815290600101906020018083116103a557829003601f168201915b50505050508152602001600282015481525050815260200190600101906102c0565b50505050905090565b600181815481106103fd57600080fd5b90600052602060002001600091509050805461041890610c46565b80601f016020809104026020016040519081016040528092919081815260200182805461044490610c46565b80156104915780601f1061046657610100808354040283529160200191610491565b820191906000526020600020905b81548152906001019060200180831161047457829003601f168201915b505050505081565b61052f816040516024016104ad91906109c9565b6040516020818303038152906040527f41304fac000000000000000000000000000000000000000000000000000000007bffffffffffffffffffffffffffffffffffffffffffffffffffffffff19166020820180517bffffffffffffffffffffffffffffffffffffffffffffffffffffffff838183161783525050505061066d565b50565b6105cc83838360405160240161054a939291906109eb565b6040516020818303038152906040527fe0e9ad4f000000000000000000000000000000000000000000000000000000007bffffffffffffffffffffffffffffffffffffffffffffffffffffffff19166020820180517bffffffffffffffffffffffffffffffffffffffffffffffffffffffff838183161783525050505061066d565b505050565b61066982826040516024016105e7929190610a30565b6040516020818303038152906040527f9710a9d0000000000000000000000000000000000000000000000000000000007bffffffffffffffffffffffffffffffffffffffffffffffffffffffff19166020820180517bffffffffffffffffffffffffffffffffffffffffffffffffffffffff838183161783525050505061066d565b5050565b60008151905060006a636f6e736f6c652e6c6f679050602083016000808483855afa5050505050565b8280546106a290610c46565b90600052602060002090601f0160209004810192826106c4576000855561070b565b82601f106106dd57805160ff191683800117855561070b565b8280016001018555821561070b579182015b8281111561070a5782518255916020019190600101906106ef565b5b509050610718919061071c565b5090565b5b8082111561073557600081600090555060010161071d565b5090565b600061074c61074784610adc565b610aab565b90508281526020810184848401111561076457600080fd5b61076f848285610c04565b509392505050565b600082601f83011261078857600080fd5b8135610798848260208601610739565b91505092915050565b6000813590506107b081610d16565b92915050565b6000602082840312156107c857600080fd5b600082013567ffffffffffffffff8111156107e257600080fd5b6107ee84828501610777565b91505092915050565b60006020828403121561080957600080fd5b6000610817848285016107a1565b91505092915050565b600061082c8383610939565b905092915050565b61083d81610bc8565b82525050565b61084c81610bc8565b82525050565b600061085d82610b1c565b6108678185610b3f565b93508360208202850161087985610b0c565b8060005b858110156108b557848403895281516108968582610820565b94506108a183610b32565b925060208a0199505060018101905061087d565b50829750879550505050505092915050565b60006108d282610b27565b6108dc8185610b50565b93506108ec818560208601610c13565b6108f581610d05565b840191505092915050565b600061090b82610b27565b6109158185610b61565b9350610925818560208601610c13565b61092e81610d05565b840191505092915050565b60006060830160008301516109516000860182610834565b506020830151848203602086015261096982826108c7565b915050604083015161097e6040860182610989565b508091505092915050565b61099281610bfa565b82525050565b6109a181610bfa565b82525050565b600060208201905081810360008301526109c18184610852565b905092915050565b600060208201905081810360008301526109e38184610900565b905092915050565b60006060820190508181036000830152610a058186610900565b9050610a146020830185610843565b8181036040830152610a268184610900565b9050949350505050565b60006040820190508181036000830152610a4a8185610900565b9050610a596020830184610998565b9392505050565b6000602082019050610a756000830184610998565b92915050565b6000604082019050610a906000830185610998565b8181036020830152610aa28184610900565b90509392505050565b6000604051905081810181811067ffffffffffffffff82111715610ad257610ad1610cd6565b5b8060405250919050565b600067ffffffffffffffff821115610af757610af6610cd6565b5b601f19601f8301169050602081019050919050565b6000819050602082019050919050565b600081519050919050565b600081519050919050565b6000602082019050919050565b600082825260208201905092915050565b600082825260208201905092915050565b600082825260208201905092915050565b6000610b7d82610bfa565b9150610b8883610bfa565b9250827fffffffffffffffffffffffffffffffffffffffffffffffffffffffffffffffff03821115610bbd57610bbc610c78565b5b828201905092915050565b6000610bd382610bda565b9050919050565b600073ffffffffffffffffffffffffffffffffffffffff82169050919050565b6000819050919050565b82818337600083830152505050565b60005b83811015610c31578082015181840152602081019050610c16565b83811115610c40576000848401525b50505050565b60006002820490506001821680610c5e57607f821691505b60208210811415610c7257610c71610ca7565b5b50919050565b7f4e487b7100000000000000000000000000000000000000000000000000000000600052601160045260246000fd5b7f4e487b7100000000000000000000000000000000000000000000000000000000600052602260045260246000fd5b7f4e487b7100000000000000000000000000000000000000000000000000000000600052604160045260246000fd5b6000601f19601f8301169050919050565b610d1f81610bfa565b8114610d2a57600080fd5b5056fea2646970667358221220b92ebbdd30268f552d55076b2210816ff3b8a45592f3852dd98e348e8025f6b664736f6c63430008000033",
    "linkReferences": {},
    "deployedLinkReferences": {}
}